:020000040800F2
:100000000050002099050008E9050008E9050008EE
:10001000E9050008E9050008E905000800000000FE
:10002000000000000000000000000000E9050008DA
:10003000E905000800000000E9050008CD040008FB
:10004000E9050008E9050008E9050008E9050008D8
:10005000E9050008E9050008E9050008E9050008C8
:10006000E9050008E9050008E9050008E9050008B8
:10007000E9050008E9050008E9050008E9050008A8
:10008000E9050008E9050008E9050008E905000898
:10009000E9050008E9050008E9050008E905000888
:1000A000E9050008E9050008E9050008E905000878
:1000B000E9050008E9050008E9050008E905000868
:1000C000E9050008E9050008E9050008E905000858
:1000D000E9050008E9050008E9050008E905000848
:1000E000E9050008E905000800000000E90500082E
:1000F000E9050008E9050008E9050008E905000828
:10010000E9050008E9050008E9050008E905000817
:10011000E9050008E9050008E9050008E905000807
:10012000E9050008E9050008E9050008E9050008F7
:1001300010B5054C237833B9044B13B10448AFF321
:1001400000800123237010BD00000020000000008B
:100150003406000808B5034B1BB103490348AFF34D
:10016000008008BD000000000400002034060008E4
:1001700080B400AF0D4B20221A600C4B00225A6055
:100180000B4B00221A600A4B00225A60094B0A4AA4
:100190005A60064B0022DA60054B0022DA60054BFC
:1001A0000022DA6000BFBD4680BC704700080140F5
:1001B000000C0140001001400000202080B485B0F8
:1001C00000AF03460A46FB711346BB710023FB7365
:1001D000FB79022B2CD8BB790F2B29D8FB79012B6B
:1001E0000FD0022B18D0002B00D023E0144BDB687B
:1001F000BA79012101FA02F21146114A4B40D3604B
:1002000015E0104BDB68BA79012101FA02F21146C0
:100210000C4A4B40D3600AE00B4BDB68BA790121F2
:1002200001FA02F21146084A4B40D36000BF01E0D8
:100230000123FB73FB7B18461437BD4680BC704717
:1002400000080140000C01400010014080B500AFE3
:1002500000F0EAF80249034800F000F900BF80BD51
:100260009D02000840420F0080B483B000AF0346F7
:100270003A60FB710B46BB71FB790749BA7901F80B
:100280003320FB79044ADB0013443A685A6000BF0C
:100290000C37BD4680BC70472400002080B582B07A
:1002A00000AF124B1B680133104A13600023FB712F
:1002B00015E00E4B1B68FA790D4911F83220B3FB9B
:1002C000F2F102FB01F29B1A002B05D1FB79084ADF
:1002D000DB0013445B689847FB790133FB71FB79C2
:1002E000022BE6D900BF0837BD4680BD1C000020A8
:1002F0002400002080B400AF284B5B68274A23F01D
:1003000003035360254B5B68244A43F001035360A9
:10031000224B5B68214A23F0F00353601F4B1F4AB6
:100320005B6853601D4B5B681C4A23F4E0635360B9
:100330001A4B1A4A5B685360184B5B68174A23F4E0
:1003400060535360154B154A5B685360134B5B68F1
:10035000124A23F0E0635360104B104A5B6853600D
:100360000E4B1B680D4A23F4802313600B4B1B6854
:100370000A4A43F48033136000BF084B1B685B0CD0
:1003800003F00103002BF8D0044B1B68034A43F42D
:100390000023136000BFBD4680BC704700100240C0
:1003A00080B485B000AF03460A46FB711346BB71AB
:1003B0000023FB73BB791F2B2CD8FB79022B29D888
:1003C000FB79012B0FD0022B18D0002B00D023E09B
:1003D000144B5B69BA79012101FA02F21146114A04
:1003E0000B43536115E00F4BDB69BA79012101FA28
:1003F00002F211460B4A0B43D3610AE0094B9B6999
:10040000BA79012101FA02F21146064A0B439361BF
:1004100000BF01E00123FB73FB7B18461437BD4688
:1004200080BC70470010024080B400AF0A4B1B68CC
:10043000094A23F001031360074B1B68064A23F0A7
:1004400004031360044B1B68034A23F00203136088
:1004500000BFBD4680BC704710E000E080B485B0AE
:1004600000AF786039600023FB733B68002B1FD01E
:100470007B68002B19D07B68B3F1807F15D2104ABE
:100480003B6813600F4B01221A700F4A7B68536060
:100490000D4B1B680C4A43F0020313600A4B1B68A8
:1004A000094A43F00103136004E00123FB7301E0F8
:1004B0000223FB73FB7B18461437BD4680BC704794
:1004C000200000203C00002010E000E080B500AFDC
:1004D0000F4B1B78002B0ED10E4B1B680D4A23F0DF
:1004E000020313600B4B1B680A4A23F001031360DD
:1004F000084B00225A60074B00229A60064B1B688B
:10050000002B02D0044B1B68984700BF80BD00BF82
:100510003C00002010E000E02000002080B500AF8B
:10052000FFF7E8FE02210220FFF73AFF0421022034
:10053000FFF736FFFFF71CFE084A01210020FFF7F6
:1005400093FE074A02210120FFF78EFE054A05218E
:100550000220FFF789FEFFF779FEFEE76905000834
:10056000790500088905000880B500AF0121002049
:10057000FFF724FE00BF80BD80B500AF0D21022033
:10058000FFF71CFE00BF80BD80B500AF0F21022029
:10059000FFF714FE00BF80BD0D488546AFF3008015
:1005A0000C480D490D4A002302E0D458C4500433CE
:1005B000C4188C42F9D30A4A0A4C002301E01360A4
:1005C0000432A242FBD300F011F8FFF7A7FFFEE7C9
:1005D0000050002000000020000000205406000809
:1005E0000000002040000020FEE7000070B500255C
:1005F0000C4E0D4CA41BA410A54209D100F01AF812
:1006000000250A4E0A4CA41BA410A54205D170BDBA
:1006100056F8253098470135EEE756F825309847CB
:100620000135F2E74C0600084C0600084C060008AD
:1006300050060008F8B500BFF8BC08BC9E467047DD
:0C064000F8B500BFF8BC08BC9E4670472F
:04064C00550100084C
:04065000310100086C
:040000050800059951
:00000001FF
